:1014CC0042006800004200660000410064004100D8
:0214DC006500A9
:0612A700900056A3E0FFD9
:1012AD00EF14601114601614601B14602024047078
:1012BD0022D2B38002C2B3C2B4C2B58016C2B3C2C9
:1012CD00B4D2B5800EC2B3D2B4D2B58006C2B3D2F9
:0A12DD00B4C2B5120EDAE4FEFF22DF
:050EDA0090005FEFF045
:100EDF00E4A3F0121516AD07AC0690005FE0FF1407
:100EEF00602114603414604714605A24047075C371
:100EFF00ED9439EC94004066D3ED9445EC9400509A
:100F0F005D8054C3ED946CEC9400400BD3ED94785A
:100F1F00EC9400500280408045C3ED9492EC940015
:100F2F00400BD3ED949EEC94005002802A802FC387
:100F3F00ED94B8EC9400400BD3ED94C5EC940050B5
:100F4F000280148019C3ED94F7EC94004010D3ED98
:100F5F009404EC94015007E4900060F08006900038
:100F6F00607401F0900060E0FD12138B900060E060
:030F7F00FF7E00F2
:010F8200224C
:1014B700A21392B2A2139294A2139295A213929698
:0514C700A21392972220
:10143400EF14601014601014601014601024047011
:101444000EC2B222C29422C29522C29622C297220E
:10138B00ED7024900064F0EF146010146010146082
:10139B001014601024047018D2B222D29422D29569
:1013AB0022D29622D297229000647401F0A3EFF020
:0113BB00220F
:0E151600E4FF1212E7D2842084FDAF9F7E0016
:0115240022A4
:10141100900065E0146010146010146010146010E6
:101421002404700EB2B222B29422B29522B2962254
:03143100B297224D
:0A154B00900064E060031214112206
:0A155500900064E0600312141122FC
:0A1540007E002090037F00227F014F
:01154A00227E
:0E10A4007B017A0079569000637402F0E4FF3D
:0B10B200900060EBF0A3EAF0A3E9F06F
:1010BD0075A15575A1AA43B104E4F5A17585C0EFDD
:1010CD0025E0FFE4FE900063E0FDEEC39D5032EE9F
:1010DD0025E02FF584900060E0FBA3E0FAA3E0F992
:1010ED008E82758300120B65F58EE58630E60375ED
:1010FD00869AE5866440D394004003AF06220E80A5
:0F110D00C475A15575A1AA53B1FBE4F5A1AF06B6
:01111C0022B0
:0B126500900060EBF0A3EAF0A3E9F0BA
:101270007585C0EF25E0FFE4FE900063E0FDEEC35E
:101280009D5021EE25E02FF58475868E900060E05C
:10129000FBA3E0FAA3E0F98E82758300E58E120BC2
:0612A000920E80D5AF069E
:0112A6002225
:100D5700E4900056F0A3F0A3120CB500000000E4E5
:100D670090005CF0A3F0A37414F0C2121214F2E422
:100D7700FDFF12111DE4FF121533121540EF4E70DF
:100D87000ED212D2131214B7121540EF4E60F9901B
:100D97000052E4F0A304F0A3E4F0A304F0C213129A
:100DA70014B7FB7A00795690006304F0E4FF12123F
:100DB70065C3900057E09405900056E09400400703
:100DC700E4F0A3F01210A41212A7E4900050F0A3CD
:100DD700F0900052E0FFA3E0A3CFF0A3EFF01215CD
:100DE70040900052EEF0A3EFF0301243A3E07004FE
:100DF700A3E064017039900052E07002A3E0702F05
:100E070090005CF0A3F0900056A3E0FF121434E0CA
:100E170004F07006900056E004F0900056E070046D
:100E2700A3E064057006900056F0A3F01212A79095
:100E37000056A3E0FF120EDA90005E301205740A26
:100E4700F080037414F090005EE0FBE4FAF9F89088
:100E57000058E0FCA3E0FDA3E0FEA3E0FF120C06B0
:100E6700AC00AD01AE02AF03E4FBFAF9F8C3120C14
:100E7700987009900064E0600312141130122B90EF
:100E8700005CE475F001120BB4FEC3E5F0942CEEA0
:100E970094014016C2121210A4D2131214B77FF491
:100EA7007E01121489C2131214B77F0A7E0012142E
:100EB70089900058E0FCA3E0FDA3E0FEA3E0240135
:100EC700FFE43EFEE43DFDE43CFC900058120CA913
:030ED700020DD831
:1014F20075A15575A1AAE5B954F84404F5B9E4F506
:02150200A12224
:0E152500EF4E600905A1EF1F70F61E80F32245
:10148900AD07AC06ED4C600E7FE87E03121525ED25
:071499001D70F11C80EE2222
:04157D0043C610222F
:100F8300C29FD29EC29DC2CDC2CC43878090006ACD
:100F9300120CB500000082E47B0AFAF9F890006AAB
:100FA300E0FCA3E0FDA3E0FEA3E0FF120C0690002B
:100FB3006EEBF090006AE0FCA3E0FDA3E0FEA3E08B
:100FC300FFE47B0AFAF9F8120C0690006A120CA9E6
:100FD30090006EE0C39405401F90006AE0FCA3E01C
:100FE300FDA3E0FEA3E02401FFE43EFEE43DFDE4B7
:100FF3003CFC90006A120CA9E589540F4420F58942
:1010030043C9A090006AA3A3A3E0F404F58DD28E94
:04101300D299D29C00
:0110170022B6
:081568003098FDC298AF9922F2
:081570008F993099FDC2992208
:1014A00075A15575A1AAEF600543B101800353B141
:0714B000FEE4F5A1F5FF22A7
:031581008FFF22B7
:051578002025642000A5
:0D153300EF44FE529A439A08C285D2EB2283
:1012E700EF7009C281C2805393FD802AEFB40109D0
:1012F700C281D2805393EF801DEFB40209D281C21D
:10130700805393DF8010EFB40309D281D2805397C3
:09131700FB80037FFF227F00220E
:1011CF00439A04ED64017016EF7002801CEFB402B5
:1011DF0002802AEFB40304D28180187FFF22CEED64
:1011EF00CEEE64037022EF7004C2818012EFB4015F
:1011FF0008C281D280C2838012EFB40208D281C2AA
:10120F0080C28380067FFF227FFF22C286D2EB7FC0
:02121F000022AB
:03004B000212217D
:10122100C0E0C0F0C083C082C0D075D00830852432
:10123100AF9F90006FE4F0A3EFF0C2857BFF7A15BA
:10124100797890006FE0FFA3E090002BCFF0A3EF3F
:10125100F012086B308602C286D0D0D082D083D003
:04126100F0D0E032B7
:1014DF004750494F5F5354415455533A20253032AA
:0314EF00780A0078
:10111D00EF14601C14602B14603C2403704AC8ED5E
:10112D00C87401088002C333D8FCF4529252932242
:10113D00C8EDC87401088002C333D8FCFFF4529285
:10114D008023C8EDC87401088002C333D8FCFF4268
:10115D0092EFF4529322C8EDC87401088002C33394
:09116D00D8FCFF4292EF429322EC
:10117600EF14601C14602B14603C2403704AC8ED05
:10118600C87401088002C333D8FCF45296529722E1
:10119600C8EDC87401088002C333D8FCFFF4529628
:1011A6008023C8EDC87401088002C333D8FCFF420F
:1011B60096EFF4529722C8EDC87401088002C33333
:0911C600D8FCFF4296EF4297228B
:09155F0053C77F43C73CD2EE22C2
:030063000213BCC9
:1013BC00C0E0C0F0C083C082C0D075D0087BFF7A7B
:1013CC001479DFE5C65440FF90002BE4F0A3EFF056
:0E13DC0012086BD0D0D082D083D0F0D0E03297
:10135800EF7009E58954F04DF5898024EFB4011147
:10136800CFEDCFEFC454F0FFE589540F4FF58980D6
:101378000FEFB40208C2CDC2CCC2C880037FFF22DF
:031388007F0022C1
:10132000C3E49DFDE49CFCEF700ACFEDCFEFF58A9E
:10133000ECF58C22EFB4010ACFEDCFEFF58BECF595
:101340008D22EFB40211CFEDCFEFF5CC8FCACEECEA
:07135000CEEEFFF5CD8FCBBF
:011357002273
:10150400C2CDC2CCC2C9D2CBD2C8EF25E025E042BD
:02151400C922EA
:10147100C2CDC2CCD2C8C2C9EF25E025E0FFE5C983
:0814810054FD4F4401F5C9229E
:03000B0002145488
:10145400C0E0C0F0C083C082C0D075D008B297127B
:0D146400154BD0D0D082D083D0F0D0E03234
:03000000021018D3
:0C101800787FE4F6D8FD75812202105F9D
:100B6500BB010CE58229F582E5833AF583E0225045
:100B750006E92582F8E622BBFE06E92582F8E2228F
:0D0B8500E58229F582E5833AF583E49322A9
:100B9200F8BB010DE58229F582E5833AF583E8F099
:100BA200225006E92582C8F622BBFE05E92582C845
:020BB200F2222D
:100BB400C5F0F8A3E028F0C5F0F8E58215827002CC
:060BC4001583E038F02269
:100BCA0075F008758200EF2FFFEE33FECD33CDCCE2
:100BDA0033CCC58233C5829BED9AEC99E582984065
:100BEA000CF582EE9BFEED9AFDEC99FC0FD5F0D642
:100BFA00E4CEFBE4CDFAE4CCF9A88222B800C1B96C
:100C0A000059BA002DEC8BF084CFCECDFCE5F0CBA9
:100C1A00F97818EF2FFFEE33FEED33FDEC33FCEBE2
:100C2A0033FB10D703994004EB99FB0FD8E5E4F99D
:100C3A00FA227818EF2FFFEE33FEED33FDEC33FC8A
:100C4A00C933C910D7059BE99A4007EC9BFCE99A7E
:100C5A00F90FD8E0E4C9FAE4CCFB2275F010EF2FC3
:100C6A00FFEE33FEED33FDCC33CCC833C810D707C3
:100C7A009BEC9AE899400AED9BFDEC9AFCE899F8FE
:0E0C8A000FD5F0DAE4CDFBE4CCFAE4C8F92291
:100C9800EB9FF5F0EA9E42F0E99D42F0E89C45F0B2
:010CA8002229
:0C0CA900ECF0A3EDF0A3EEF0A3EFF022BE
:100CB500A8828583F0D083D082120CCC120CCC1282
:100CC5000CCC120CCCE473E493A3C583C5F0C583A7
:100CD500C8C582C8F0A3C583C5F0C583C8C582C889
:010CE50022EC
:10080000E515242BF582E43400F583E005152290EC
:10081000002830100390002BE475F001120D110236
:100820000CE62009E97F2ED2098018EF540F24909E
:10083000D43440D4FF300D0BEF24BFB41A00500362
:100840002461FFE516600215160519E51970020509
:100850001830100E900028E475F001120D11EF020F
:100860000CFF0213EA7403D2108003E4C210F515E2
:10087000900028120D28E4F516F518F519E5166014
:10088000077F2012084380F57517FFC20AC209C20C
:100890000BC20CC20EC20FC21112080FFF700D3036
:1008A00010057F00120854AF19AE1822B4255FC29C
:1008B000D5C20D12080FFF24D0B40A00501A75F0EB
:1008C0000A781630D50508B6FF0106C6A426F6201C
:1008D000D5047002D20C80D924CFB41A00EF500492
:1008E000C2E5D20D020A55D20A80C6D20980C0D212
:1008F0000B80BCD2D580BAD20E80B47F20120843C0
:10090000200B077401B5160040F1120800FF120811
:100910004302087DD211D20F8095120800FB120805
:1009200000FA120800F94A4B700679267A0B7BFF11
:10093000200B2EE516602A7E008E82758300120B36
:100940006560060EEE651770F0C2D5EBC0E0EAC038
:10095000E0E9C0E0EE120A9CD0E0F9D0E0FAD0E085
:10096000FB120CE6FF60AAEBC0E0EAC0E0E9C0E0E1
:10097000120843D0E02401F9D0E03400FAD0E0FBC3
:10098000E5170460DCD517D980877BFF7A0A799850
:10099000D20B809C791080027908C20FC2118008A6
:1009A000D2D5790A8004790AC2D5E517047002F518
:1009B00017E4FAFDFEFF120800FC7B08200A131260
:1009C0000800FD7B1030090A120800FE120800FF23
:1009D0007B20EC3382D592D55013C3E43009069FB7
:1009E000FFE49EFEE4200A039DFDE49CFCE4CBF8BA
:1009F000C20AEC700CCFCECDCCE824F8F870F380AE
:100A000017C3EF33FFEE33FEED33FDEC33FCEB3376
:100A1000FB994002FB0FD8E9EB300A05F8D0E0C49F
:100A200048B20AC0E00AEC4D4E4F78207B0070C2FD
:100A3000EAB5170040BCC0E0120A9ED0F0D0E0201A
:100A40000A04C4C0E0C4B20AC0F012082CD0F0D529
:100A5000F0EB02087D120D31091A5309945808EB86
:100A60004C08E74209984F09A04409A049090043EE
:080A700009A655098A46098A0E
:100A780045098A470B465008EF2D08F32E09162B17
:100A880008F7230914200B2F2A08AF480000090E85
:100A98003F3F3F00790AA2D5200C14300E09B91047
:100AA800020404B9080104A2D5200F025001042051
:100AB8000B68920BB516005034C0E07F20300C193B
:100AC8007F30A20B720F720E500F120AF5C20BC2C2
:100AD8000FC20EC2117F30800F300E03E9C0E01242
:100AE8000843300E03D0E0F9D0E0B516CC300E172D
:100AF8007F30B9100C1208437F58300D077F78807B
:100B080003B90803120843300B057F2D0208437F01
:100B1800202011F87F2B200FF322920B80CF286E14
:100B2800756C6C2900D20A120800300AF8C20A78DB
:100B38001630D50108F60208AF2D5043495812085F
:100B4800002403B405004001E4900B4193120834DB
:0D0B5800743A120834D20C75160402099488
:10102400020D57E493A3F8E493A34003F68001F27E
:1010340008DFF48029E493A3F85407240CC8C333CD
:10104400C4540F4420C8834004F456800146F6DF9C
:10105400E4800B01020408102040809014CCE47E4C
:10106400019360BCA3FF543F30E509541FFEE49391
:10107400A360010ECF54C025E060A840B8E493A358
:10108400FAE493A3F8E493A3C8C582C8CAC583CA83
:10109400F0A3C8C582C8CAC583CADFE9DEE780BE3B
:0114DE00000D
:100CE600BB010689828A83E0225002E722BBFE020C
:090CF600E32289828A83E493223F
:100CFF00BB010689828A83F0225002F722BBFE01D4
:020D0F00F322CD
:100D1100F8E0FBA3A3E0F925F0F0E582158270026B
:070D21001583E0FA38F0220F
:090D2800EBF0A3EAF0A3E9F022CC
:100D3100D083D082F8E4937012740193700DA3A351
:100D410093F8740193F5828883E473740293686065
:060D5100EFA3A3A380DF65
:1013EA00EFB40A07740D1213F5740A309811A8990C
:1013FA00B8130CC2983098FDA899C298B811F63063
:07140A0099FDC299F599223A
:00000001FF
